{
  "_format": "hh-sol-artifact-1",
  "contractName": "ICO",
  "sourceName": "contracts/ICO.sol",
  "abi": [
    {
      "inputs": [
        {
          "internalType": "address",
          "name": "_token",
          "type": "address"
        },
        {
          "internalType": "address",
          "name": "_admin",
          "type": "address"
        }
      ],
      "stateMutability": "nonpayable",
      "type": "constructor"
    },
    {
      "anonymous": false,
      "inputs": [
        {
          "indexed": true,
          "internalType": "address",
          "name": "receiver_address",
          "type": "address"
        },
        {
          "indexed": true,
          "internalType": "uint256",
          "name": "amount",
          "type": "uint256"
        }
      ],
      "name": "AirDrop",
      "type": "event"
    },
    {
      "anonymous": false,
      "inputs": [
        {
          "indexed": true,
          "internalType": "address",
          "name": "buyer_address",
          "type": "address"
        },
        {
          "indexed": true,
          "internalType": "uint256",
          "name": "amount",
          "type": "uint256"
        }
      ],
      "name": "Buy",
      "type": "event"
    },
    {
      "inputs": [
        {
          "internalType": "uint256",
          "name": "duration",
          "type": "uint256"
        }
      ],
      "name": "activate",
      "outputs": [],
      "stateMutability": "nonpayable",
      "type": "function"
    },
    {
      "inputs": [
        {
          "internalType": "address",
          "name": "receiver",
          "type": "address"
        }
      ],
      "name": "airDrop",
      "outputs": [],
      "stateMutability": "nonpayable",
      "type": "function"
    },
    {
      "inputs": [],
      "name": "airDropAmount",
      "outputs": [
        {
          "internalType": "uint256",
          "name": "",
          "type": "uint256"
        }
      ],
      "stateMutability": "view",
      "type": "function"
    },
    {
      "inputs": [
        {
          "internalType": "address",
          "name": "",
          "type": "address"
        }
      ],
      "name": "airdrops",
      "outputs": [
        {
          "internalType": "uint256",
          "name": "",
          "type": "uint256"
        }
      ],
      "stateMutability": "view",
      "type": "function"
    },
    {
      "inputs": [
        {
          "internalType": "address",
          "name": "account",
          "type": "address"
        }
      ],
      "name": "balanceOfEth",
      "outputs": [
        {
          "internalType": "uint256",
          "name": "",
          "type": "uint256"
        }
      ],
      "stateMutability": "view",
      "type": "function"
    },
    {
      "inputs": [
        {
          "internalType": "address",
          "name": "account",
          "type": "address"
        }
      ],
      "name": "balanceOfToken",
      "outputs": [
        {
          "internalType": "uint256",
          "name": "",
          "type": "uint256"
        }
      ],
      "stateMutability": "view",
      "type": "function"
    },
    {
      "inputs": [],
      "name": "deactive",
      "outputs": [],
      "stateMutability": "nonpayable",
      "type": "function"
    },
    {
      "inputs": [
        {
          "internalType": "uint256",
          "name": "amount",
          "type": "uint256"
        }
      ],
      "name": "depositTokens",
      "outputs": [],
      "stateMutability": "nonpayable",
      "type": "function"
    },
    {
      "inputs": [],
      "name": "getIcoAddr",
      "outputs": [
        {
          "internalType": "address",
          "name": "",
          "type": "address"
        }
      ],
      "stateMutability": "view",
      "type": "function"
    },
    {
      "inputs": [],
      "name": "getTokenAddr",
      "outputs": [
        {
          "internalType": "address",
          "name": "",
          "type": "address"
        }
      ],
      "stateMutability": "view",
      "type": "function"
    },
    {
      "inputs": [
        {
          "internalType": "address",
          "name": "",
          "type": "address"
        }
      ],
      "name": "holders",
      "outputs": [
        {
          "internalType": "uint256",
          "name": "",
          "type": "uint256"
        }
      ],
      "stateMutability": "view",
      "type": "function"
    },
    {
      "inputs": [],
      "name": "holdersCount",
      "outputs": [
        {
          "internalType": "uint256",
          "name": "",
          "type": "uint256"
        }
      ],
      "stateMutability": "view",
      "type": "function"
    },
    {
      "inputs": [],
      "name": "icoEndTime",
      "outputs": [
        {
          "internalType": "uint256",
          "name": "",
          "type": "uint256"
        }
      ],
      "stateMutability": "view",
      "type": "function"
    },
    {
      "inputs": [
        {
          "internalType": "address",
          "name": "",
          "type": "address"
        }
      ],
      "name": "isInList",
      "outputs": [
        {
          "internalType": "bool",
          "name": "",
          "type": "bool"
        }
      ],
      "stateMutability": "view",
      "type": "function"
    },
    {
      "inputs": [],
      "name": "maxAirdropAmount",
      "outputs": [
        {
          "internalType": "uint256",
          "name": "",
          "type": "uint256"
        }
      ],
      "stateMutability": "view",
      "type": "function"
    },
    {
      "inputs": [
        {
          "internalType": "uint256",
          "name": "amount",
          "type": "uint256"
        }
      ],
      "name": "purchase",
      "outputs": [],
      "stateMutability": "payable",
      "type": "function"
    },
    {
      "inputs": [],
      "name": "token",
      "outputs": [
        {
          "internalType": "contract IERC20",
          "name": "",
          "type": "address"
        }
      ],
      "stateMutability": "view",
      "type": "function"
    },
    {
      "inputs": [],
      "name": "tokenPrice",
      "outputs": [
        {
          "internalType": "uint256",
          "name": "",
          "type": "uint256"
        }
      ],
      "stateMutability": "view",
      "type": "function"
    },
    {
      "inputs": [],
      "name": "totalReleasedAirdrop",
      "outputs": [
        {
          "internalType": "uint256",
          "name": "",
          "type": "uint256"
        }
      ],
      "stateMutability": "view",
      "type": "function"
    },
    {
      "inputs": [
        {
          "internalType": "address",
          "name": "newAdmin",
          "type": "address"
        }
      ],
      "name": "updateAdmin",
      "outputs": [],
      "stateMutability": "nonpayable",
      "type": "function"
    },
    {
      "inputs": [
        {
          "internalType": "uint256",
          "name": "amount",
          "type": "uint256"
        }
      ],
      "name": "withdrawEth",
      "outputs": [],
      "stateMutability": "nonpayable",
      "type": "function"
    },
    {
      "inputs": [
        {
          "internalType": "uint256",
          "name": "amount",
          "type": "uint256"
        }
      ],
      "name": "withdrawTokens",
      "outputs": [],
      "stateMutability": "nonpayable",
      "type": "function"
    }
  ],
  "bytecode": "0x608060405266038d7ea4c6800060025568056bc75e2d6310000060035569d3c21bcecceda10000006004553480156200003757600080fd5b5060405162001e2d38038062001e2d83398181016040528101906200005d919062000150565b806000806101000a81548173ffffffffffffffffffffffffffffffffffffffff021916908373ffffffffffffffffffffffffffffffffffffffff16021790555081600160006101000a81548173ffffffffffffffffffffffffffffffffffffffff021916908373ffffffffffffffffffffffffffffffffffffffff160217905550505062000197565b600080fd5b600073ffffffffffffffffffffffffffffffffffffffff82169050919050565b60006200011882620000eb565b9050919050565b6200012a816200010b565b81146200013657600080fd5b50565b6000815190506200014a816200011f565b92915050565b600080604083850312156200016a5762000169620000e6565b5b60006200017a8582860162000139565b92505060206200018d8582860162000139565b9150509250929050565b611c8680620001a76000396000f3fe6080604052600436106101355760003560e01c8063a008f709116100ab578063d27289f21161006f578063d27289f214610416578063dd49756e14610441578063e2f273bd1461046a578063efef39a114610493578063fa33bcf3146104af578063fc0c546a146104ec57610135565b8063a008f70914610347578063b260c42a1461035e578063b99152d014610387578063c311d049146103c4578063cd18d5a4146103ed57610135565b8063582b2720116100fd578063582b27201461023357806369947e531461025e5780636b4ed21b146102895780637e1055b6146102b45780637ff9b596146102df5780638c86f0a71461030a57610135565b806308e9988b1461013a57806318a5bbdc1461016557806323efeb12146101a2578063315a095d146101cd57806340654e14146101f6575b600080fd5b34801561014657600080fd5b5061014f610517565b60405161015c91906113b5565b60405180910390f35b34801561017157600080fd5b5061018c60048036038101906101879190611433565b61051d565b60405161019991906113b5565b60405180910390f35b3480156101ae57600080fd5b506101b7610535565b6040516101c491906113b5565b60405180910390f35b3480156101d957600080fd5b506101f460048036038101906101ef919061148c565b61053b565b005b34801561020257600080fd5b5061021d60048036038101906102189190611433565b6106d8565b60405161022a91906113b5565b60405180910390f35b34801561023f57600080fd5b506102486106f9565b60405161025591906114c8565b60405180910390f35b34801561026a57600080fd5b50610273610723565b60405161028091906114c8565b60405180910390f35b34801561029557600080fd5b5061029e61072b565b6040516102ab91906113b5565b60405180910390f35b3480156102c057600080fd5b506102c9610731565b6040516102d691906113b5565b60405180910390f35b3480156102eb57600080fd5b506102f4610737565b60405161030191906113b5565b60405180910390f35b34801561031657600080fd5b50610331600480360381019061032c9190611433565b61073d565b60405161033e91906113b5565b60405180910390f35b34801561035357600080fd5b5061035c610755565b005b34801561036a57600080fd5b506103856004803603810190610380919061148c565b6107ed565b005b34801561039357600080fd5b506103ae60048036038101906103a99190611433565b6108d3565b6040516103bb91906113b5565b60405180910390f35b3480156103d057600080fd5b506103eb60048036038101906103e6919061148c565b610978565b005b3480156103f957600080fd5b50610414600480360381019061040f9190611433565b610abb565b005b34801561042257600080fd5b5061042b610e97565b60405161043891906113b5565b60405180910390f35b34801561044d57600080fd5b506104686004803603810190610463919061148c565b610e9d565b005b34801561047657600080fd5b50610491600480360381019061048c9190611433565b610fd1565b005b6104ad60048036038101906104a8919061148c565b6110a2565b005b3480156104bb57600080fd5b506104d660048036038101906104d19190611433565b611356565b6040516104e391906114fe565b60405180910390f35b3480156104f857600080fd5b50610501611376565b60405161050e9190611578565b60405180910390f35b60035481565b60096020528060005260406000206000915090505481565b60045481565b60008054906101000a900473ffffffffffffffffffffffffffffffffffffffff1673ffffffffffffffffffffffffffffffffffffffff163373ffffffffffffffffffffffffffffffffffffffff16146105c9576040517f08c379a00000000000000000000000000000000000000000000000000000000081526004016105c090611616565b60405180910390fd5b6105d2306108d3565b811115610614576040517f08c379a000000000000000000000000000000000000000000000000000000000815260040161060b906116a8565b60405180910390fd5b600160009054906101000a900473ffffffffffffffffffffffffffffffffffffffff1673ffffffffffffffffffffffffffffffffffffffff1663a9059cbb60008054906101000a900473ffffffffffffffffffffffffffffffffffffffff16836040518363ffffffff1660e01b81526004016106919291906116c8565b6020604051808303816000875af11580156106b0573d6000803e3d6000fd5b505050506040513d601f19601f820116820180604052508101906106d4919061171d565b5050565b60008173ffffffffffffffffffffffffffffffffffffffff16319050919050565b6000600160009054906101000a900473ffffffffffffffffffffffffffffffffffffffff16905090565b600030905090565b60075481565b60065481565b60025481565b60086020528060005260406000206000915090505481565b60008054906101000a900473ffffffffffffffffffffffffffffffffffffffff1673ffffffffffffffffffffffffffffffffffffffff163373ffffffffffffffffffffffffffffffffffffffff16146107e3576040517f08c379a00000000000000000000000000000000000000000000000000000000081526004016107da90611616565b60405180910390fd5b6000600681905550565b60008054906101000a900473ffffffffffffffffffffffffffffffffffffffff1673ffffffffffffffffffffffffffffffffffffffff163373ffffffffffffffffffffffffffffffffffffffff161461087b576040517f08c379a000000000000000000000000000000000000000000000000000000000815260040161087290611616565b60405180910390fd5b600081116108be576040517f08c379a00000000000000000000000000000000000000000000000000000000081526004016108b590611796565b60405180910390fd5b80426108ca91906117e5565b60068190555050565b6000600160009054906101000a900473ffffffffffffffffffffffffffffffffffffffff1673ffffffffffffffffffffffffffffffffffffffff166370a08231836040518263ffffffff1660e01b815260040161093091906114c8565b602060405180830381865afa15801561094d573d6000803e3d6000fd5b505050506040513d601f19601f82011682018060405250810190610971919061182e565b9050919050565b60008054906101000a900473ffffffffffffffffffffffffffffffffffffffff1673ffffffffffffffffffffffffffffffffffffffff163373ffffffffffffffffffffffffffffffffffffffff1614610a06576040517f08c379a00000000000000000000000000000000000000000000000000000000081526004016109fd90611616565b60405180910390fd5b610a0f306106d8565b811115610a51576040517f08c379a0000000000000000000000000000000000000000000000000000000008152600401610a48906118a7565b60405180910390fd5b60008054906101000a900473ffffffffffffffffffffffffffffffffffffffff1673ffffffffffffffffffffffffffffffffffffffff166108fc829081150290604051600060405180830381858888f19350505050158015610ab7573d6000803e3d6000fd5b5050565b6000600654118015610ace575060065442105b610b0d576040517f08c379a0000000000000000000000000000000000000000000000000000000008152600401610b0490611913565b60405180910390fd5b6000600860008373ffffffffffffffffffffffffffffffffffffffff1673ffffffffffffffffffffffffffffffffffffffff1681526020019081526020016000205414610b8f576040517f08c379a0000000000000000000000000000000000000000000000000000000008152600401610b86906119a5565b60405180910390fd5b600454600354600554610ba291906117e5565b1115610be3576040517f08c379a0000000000000000000000000000000000000000000000000000000008152600401610bda90611a37565b60405180910390fd5b600354610bef306108d3565b1015610c30576040517f08c379a0000000000000000000000000000000000000000000000000000000008152600401610c2790611aa3565b60405180910390fd5b600160009054906101000a900473ffffffffffffffffffffffffffffffffffffffff1673ffffffffffffffffffffffffffffffffffffffff1663a9059cbb826003546040518363ffffffff1660e01b8152600401610c8f9291906116c8565b6020604051808303816000875af1158015610cae573d6000803e3d6000fd5b505050506040513d601f19601f82011682018060405250810190610cd2919061171d565b50600354600860008373ffffffffffffffffffffffffffffffffffffffff1673ffffffffffffffffffffffffffffffffffffffff1681526020019081526020016000208190555060035460056000828254610d2d91906117e5565b92505081905550600a60008273ffffffffffffffffffffffffffffffffffffffff1673ffffffffffffffffffffffffffffffffffffffff16815260200190815260200160002060009054906101000a900460ff16610df65760076000815480929190610d9890611ac3565b91905055506001600a60008373ffffffffffffffffffffffffffffffffffffffff1673ffffffffffffffffffffffffffffffffffffffff16815260200190815260200160002060006101000a81548160ff0219169083151502179055505b600354600960008373ffffffffffffffffffffffffffffffffffffffff1673ffffffffffffffffffffffffffffffffffffffff1681526020019081526020016000206000828254610e4791906117e5565b925050819055506003548173ffffffffffffffffffffffffffffffffffffffff167f2a2f3a6f457f222229acc6b14376a5d3f4344fae935675150a096e2f1056bd9860405160405180910390a350565b60055481565b60008054906101000a900473ffffffffffffffffffffffffffffffffffffffff1673ffffffffffffffffffffffffffffffffffffffff163373ffffffffffffffffffffffffffffffffffffffff1614610f2b576040517f08c379a0000000000000000000000000000000000000000000000000000000008152600401610f2290611616565b60405180910390fd5b600160009054906101000a900473ffffffffffffffffffffffffffffffffffffffff1673ffffffffffffffffffffffffffffffffffffffff166323b872dd3330846040518463ffffffff1660e01b8152600401610f8a93929190611b0b565b6020604051808303816000875af1158015610fa9573d6000803e3d6000fd5b505050506040513d601f19601f82011682018060405250810190610fcd919061171d565b5050565b60008054906101000a900473ffffffffffffffffffffffffffffffffffffffff1673ffffffffffffffffffffffffffffffffffffffff163373ffffffffffffffffffffffffffffffffffffffff161461105f576040517f08c379a000000000000000000000000000000000000000000000000000000000815260040161105690611616565b60405180910390fd5b806000806101000a81548173ffffffffffffffffffffffffffffffffffffffff021916908373ffffffffffffffffffffffffffffffffffffffff16021790555050565b60006006541180156110b5575060065442105b6110f4576040517f08c379a00000000000000000000000000000000000000000000000000000000081526004016110eb90611913565b60405180910390fd5b670de0b6b3a76400008160025461110b9190611b42565b6111159190611bb3565b3414611156576040517f08c379a000000000000000000000000000000000000000000000000000000000815260040161114d90611c30565b60405180910390fd5b600160009054906101000a900473ffffffffffffffffffffffffffffffffffffffff1673ffffffffffffffffffffffffffffffffffffffff1663a9059cbb33836040518363ffffffff1660e01b81526004016111b39291906116c8565b6020604051808303816000875af11580156111d2573d6000803e3d6000fd5b505050506040513d601f19601f820116820180604052508101906111f6919061171d565b50600a60003373ffffffffffffffffffffffffffffffffffffffff1673ffffffffffffffffffffffffffffffffffffffff16815260200190815260200160002060009054906101000a900460ff166112b9576001600a60003373ffffffffffffffffffffffffffffffffffffffff1673ffffffffffffffffffffffffffffffffffffffff16815260200190815260200160002060006101000a81548160ff021916908315150217905550600760008154809291906112b390611ac3565b91905055505b80600960003373ffffffffffffffffffffffffffffffffffffffff1673ffffffffffffffffffffffffffffffffffffffff168152602001908152602001600020600082825461130891906117e5565b92505081905550803373ffffffffffffffffffffffffffffffffffffffff167fe3d4187f6ca4248660cc0ac8b8056515bac4a8132be2eca31d6d0cc170722a7e60405160405180910390a350565b600a6020528060005260406000206000915054906101000a900460ff1681565b600160009054906101000a900473ffffffffffffffffffffffffffffffffffffffff1681565b6000819050919050565b6113af8161139c565b82525050565b60006020820190506113ca60008301846113a6565b92915050565b600080fd5b600073ffffffffffffffffffffffffffffffffffffffff82169050919050565b6000611400826113d5565b9050919050565b611410816113f5565b811461141b57600080fd5b50565b60008135905061142d81611407565b92915050565b600060208284031215611449576114486113d0565b5b60006114578482850161141e565b91505092915050565b6114698161139c565b811461147457600080fd5b50565b60008135905061148681611460565b92915050565b6000602082840312156114a2576114a16113d0565b5b60006114b084828501611477565b91505092915050565b6114c2816113f5565b82525050565b60006020820190506114dd60008301846114b9565b92915050565b60008115159050919050565b6114f8816114e3565b82525050565b600060208201905061151360008301846114ef565b92915050565b6000819050919050565b600061153e611539611534846113d5565b611519565b6113d5565b9050919050565b600061155082611523565b9050919050565b600061156282611545565b9050919050565b61157281611557565b82525050565b600060208201905061158d6000830184611569565b92915050565b600082825260208201905092915050565b7f6f6e6c792061646d696e2063616e2063616c6c20746869732066756e6374696f60008201527f6e00000000000000000000000000000000000000000000000000000000000000602082015250565b6000611600602183611593565b915061160b826115a4565b604082019050919050565b6000602082019050818103600083015261162f816115f3565b9050919050565b7f776974686472617720616d6f756e7420697320686967686572207468616e207460008201527f68652062616c616e63652e000000000000000000000000000000000000000000602082015250565b6000611692602b83611593565b915061169d82611636565b604082019050919050565b600060208201905081810360008301526116c181611685565b9050919050565b60006040820190506116dd60008301856114b9565b6116ea60208301846113a6565b9392505050565b6116fa816114e3565b811461170557600080fd5b50565b600081519050611717816116f1565b92915050565b600060208284031215611733576117326113d0565b5b600061174184828501611708565b91505092915050565b7f6475726174696f6e206d757374206265206d6f7265207468616e203000000000600082015250565b6000611780601c83611593565b915061178b8261174a565b602082019050919050565b600060208201905081810360008301526117af81611773565b9050919050565b7f4e487b7100000000000000000000000000000000000000000000000000000000600052601160045260246000fd5b60006117f08261139c565b91506117fb8361139c565b9250828201905080821115611813576118126117b6565b5b92915050565b60008151905061182881611460565b92915050565b600060208284031215611844576118436113d0565b5b600061185284828501611819565b91505092915050565b7f616d6f756e7420697320686967686572207468616e2062616c616e6365000000600082015250565b6000611891601d83611593565b915061189c8261185b565b602082019050919050565b600060208201905081810360008301526118c081611884565b9050919050565b7f49636f20697320696e4163746976652100000000000000000000000000000000600082015250565b60006118fd601083611593565b9150611908826118c7565b602082019050919050565b6000602082019050818103600083015261192c816118f0565b9050919050565b7f74686973206164647265737320686173206265656e2061697264726f7065642060008201527f6265666f72650000000000000000000000000000000000000000000000000000602082015250565b600061198f602683611593565b915061199a82611933565b604082019050919050565b600060208201905081810360008301526119be81611982565b9050919050565b7f416c6c2061697264726f7020746f6b656e7320776572652072656c656173656460008201527f2100000000000000000000000000000000000000000000000000000000000000602082015250565b6000611a21602183611593565b9150611a2c826119c5565b604082019050919050565b60006020820190508181036000830152611a5081611a14565b9050919050565b7f436f6e74726163742062616c616e636520697320696e73756666696369656e74600082015250565b6000611a8d602083611593565b9150611a9882611a57565b602082019050919050565b60006020820190508181036000830152611abc81611a80565b9050919050565b6000611ace8261139c565b91507fffffffffffffffffffffffffffffffffffffffffffffffffffffffffffffffff8203611b0057611aff6117b6565b5b600182019050919050565b6000606082019050611b2060008301866114b9565b611b2d60208301856114b9565b611b3a60408301846113a6565b949350505050565b6000611b4d8261139c565b9150611b588361139c565b9250828202611b668161139c565b91508282048414831517611b7d57611b7c6117b6565b5b5092915050565b7f4e487b7100000000000000000000000000000000000000000000000000000000600052601260045260246000fd5b6000611bbe8261139c565b9150611bc98361139c565b925082611bd957611bd8611b84565b5b828204905092915050565b7f6e6f7420637572726563742076616c7565210000000000000000000000000000600082015250565b6000611c1a601283611593565b9150611c2582611be4565b602082019050919050565b60006020820190508181036000830152611c4981611c0d565b905091905056fea264697066735822122096874eb3acca3f71d1f6a6d9545f33ece6f8769653ebc214ee549f94d3b9c6d864736f6c63430008180033",
  "linkReferences": {},
  "deployedLinkReferences": {}
}